{
  "_format": "hh-sol-artifact-1",
  "contractName": "BFFCoin",
  "sourceName": "contracts/BFFCoin.sol",
  "abi": [
    {
      "anonymous": false,
      "inputs": [
        {
          "indexed": true,
          "internalType": "address",
          "name": "owner",
          "type": "address"
        },
        {
          "indexed": true,
          "internalType": "address",
          "name": "spender",
          "type": "address"
        },
        {
          "indexed": false,
          "internalType": "uint256",
          "name": "value",
          "type": "uint256"
        }
      ],
      "name": "Approval",
      "type": "event"
    },
    {
      "anonymous": false,
      "inputs": [
        {
          "indexed": true,
          "internalType": "address",
          "name": "from",
          "type": "address"
        },
        {
          "indexed": true,
          "internalType": "address",
          "name": "to",
          "type": "address"
        },
        {
          "indexed": false,
          "internalType": "uint256",
          "name": "value",
          "type": "uint256"
        }
      ],
      "name": "Transfer",
      "type": "event"
    },
    {
      "inputs": [
        {
          "internalType": "address",
          "name": "owner",
          "type": "address"
        },
        {
          "internalType": "address",
          "name": "spender",
          "type": "address"
        }
      ],
      "name": "allowance",
      "outputs": [
        {
          "internalType": "uint256",
          "name": "",
          "type": "uint256"
        }
      ],
      "stateMutability": "view",
      "type": "function"
    },
    {
      "inputs": [
        {
          "internalType": "address",
          "name": "spender",
          "type": "address"
        },
        {
          "internalType": "uint256",
          "name": "amount",
          "type": "uint256"
        }
      ],
      "name": "approve",
      "outputs": [
        {
          "internalType": "bool",
          "name": "",
          "type": "bool"
        }
      ],
      "stateMutability": "nonpayable",
      "type": "function"
    },
    {
      "inputs": [
        {
          "internalType": "address",
          "name": "account",
          "type": "address"
        }
      ],
      "name": "balanceOf",
      "outputs": [
        {
          "internalType": "uint256",
          "name": "",
          "type": "uint256"
        }
      ],
      "stateMutability": "view",
      "type": "function"
    },
    {
      "inputs": [],
      "name": "decimals",
      "outputs": [
        {
          "internalType": "uint8",
          "name": "",
          "type": "uint8"
        }
      ],
      "stateMutability": "view",
      "type": "function"
    },
    {
      "inputs": [
        {
          "internalType": "address",
          "name": "spender",
          "type": "address"
        },
        {
          "internalType": "uint256",
          "name": "subtractedValue",
          "type": "uint256"
        }
      ],
      "name": "decreaseAllowance",
      "outputs": [
        {
          "internalType": "bool",
          "name": "",
          "type": "bool"
        }
      ],
      "stateMutability": "nonpayable",
      "type": "function"
    },
    {
      "inputs": [
        {
          "internalType": "address",
          "name": "spender",
          "type": "address"
        },
        {
          "internalType": "uint256",
          "name": "addedValue",
          "type": "uint256"
        }
      ],
      "name": "increaseAllowance",
      "outputs": [
        {
          "internalType": "bool",
          "name": "",
          "type": "bool"
        }
      ],
      "stateMutability": "nonpayable",
      "type": "function"
    },
    {
      "inputs": [
        {
          "internalType": "string",
          "name": "name",
          "type": "string"
        },
        {
          "internalType": "string",
          "name": "symbol",
          "type": "string"
        },
        {
          "internalType": "uint256",
          "name": "initialSupply",
          "type": "uint256"
        }
      ],
      "name": "initialize",
      "outputs": [],
      "stateMutability": "nonpayable",
      "type": "function"
    },
    {
      "inputs": [],
      "name": "name",
      "outputs": [
        {
          "internalType": "string",
          "name": "",
          "type": "string"
        }
      ],
      "stateMutability": "view",
      "type": "function"
    },
    {
      "inputs": [],
      "name": "symbol",
      "outputs": [
        {
          "internalType": "string",
          "name": "",
          "type": "string"
        }
      ],
      "stateMutability": "view",
      "type": "function"
    },
    {
      "inputs": [],
      "name": "totalSupply",
      "outputs": [
        {
          "internalType": "uint256",
          "name": "",
          "type": "uint256"
        }
      ],
      "stateMutability": "view",
      "type": "function"
    },
    {
      "inputs": [
        {
          "internalType": "address",
          "name": "to",
          "type": "address"
        },
        {
          "internalType": "uint256",
          "name": "amount",
          "type": "uint256"
        }
      ],
      "name": "transfer",
      "outputs": [
        {
          "internalType": "bool",
          "name": "",
          "type": "bool"
        }
      ],
      "stateMutability": "nonpayable",
      "type": "function"
    },
    {
      "inputs": [
        {
          "internalType": "address",
          "name": "from",
          "type": "address"
        },
        {
          "internalType": "address",
          "name": "to",
          "type": "address"
        },
        {
          "internalType": "uint256",
          "name": "amount",
          "type": "uint256"
        }
      ],
      "name": "transferFrom",
      "outputs": [
        {
          "internalType": "bool",
          "name": "",
          "type": "bool"
        }
      ],
      "stateMutability": "nonpayable",
      "type": "function"
    }
  ],
  "bytecode": "0x608060405234801561001057600080fd5b50610e10806100206000396000f3fe608060405234801561001057600080fd5b50600436106100d45760003560e01c806370a0823111610081578063a9059cbb1161005b578063a9059cbb146101a5578063b119490e146101b8578063dd62ed3e146101cd57600080fd5b806370a082311461016157806395d89b411461018a578063a457c2d71461019257600080fd5b806323b872dd116100b257806323b872dd1461012c578063313ce5671461013f578063395093511461014e57600080fd5b806306fdde03146100d9578063095ea7b3146100f757806318160ddd1461011a575b600080fd5b6100e1610206565b6040516100ee9190610d0e565b60405180910390f35b61010a610105366004610c77565b610298565b60405190151581526020016100ee565b6035545b6040519081526020016100ee565b61010a61013a366004610c3b565b6102b0565b604051601281526020016100ee565b61010a61015c366004610c77565b6102d4565b61011e61016f366004610be6565b6001600160a01b031660009081526033602052604090205490565b6100e1610313565b61010a6101a0366004610c77565b610322565b61010a6101b3366004610c77565b6103d1565b6101cb6101c6366004610ca1565b6103df565b005b61011e6101db366004610c08565b6001600160a01b03918216600090815260346020908152604080832093909416825291909152205490565b60606036805461021590610d89565b80601f016020809104026020016040519081016040528092919081815260200182805461024190610d89565b801561028e5780601f106102635761010080835404028352916020019161028e565b820191906000526020600020905b81548152906001019060200180831161027157829003601f168201915b5050505050905090565b6000336102a68185856104be565b5060019392505050565b6000336102be858285610616565b6102c98585856106a2565b506001949350505050565b3360008181526034602090815260408083206001600160a01b03871684529091528120549091906102a6908290869061030e908790610d63565b6104be565b60606037805461021590610d89565b3360008181526034602090815260408083206001600160a01b0387168452909152812054909190838110156103c45760405162461bcd60e51b815260206004820152602560248201527f45524332303a2064656372656173656420616c6c6f77616e63652062656c6f7760448201527f207a65726f00000000000000000000000000000000000000000000000000000060648201526084015b60405180910390fd5b6102c982868684036104be565b6000336102a68185856106a2565b600054610100900460ff166103fa5760005460ff16156103fe565b303b155b6104705760405162461bcd60e51b815260206004820152602e60248201527f496e697469616c697a61626c653a20636f6e747261637420697320616c72656160448201527f647920696e697469616c697a656400000000000000000000000000000000000060648201526084016103bb565b600054610100900460ff16158015610492576000805461ffff19166101011790555b61049c84846108b9565b6104a63383610932565b80156104b8576000805461ff00191690555b50505050565b6001600160a01b0383166105395760405162461bcd60e51b8152602060048201526024808201527f45524332303a20617070726f76652066726f6d20746865207a65726f2061646460448201527f726573730000000000000000000000000000000000000000000000000000000060648201526084016103bb565b6001600160a01b0382166105b55760405162461bcd60e51b815260206004820152602260248201527f45524332303a20617070726f766520746f20746865207a65726f20616464726560448201527f737300000000000000000000000000000000000000000000000000000000000060648201526084016103bb565b6001600160a01b0383811660008181526034602090815260408083209487168084529482529182902085905590518481527f8c5be1e5ebec7d5bd14f71427d1e84f3dd0314c0f7b2291e5b200ac8c7c3b925910160405180910390a3505050565b6001600160a01b0383811660009081526034602090815260408083209386168352929052205460001981146104b857818110156106955760405162461bcd60e51b815260206004820152601d60248201527f45524332303a20696e73756666696369656e7420616c6c6f77616e636500000060448201526064016103bb565b6104b884848484036104be565b6001600160a01b03831661071e5760405162461bcd60e51b815260206004820152602560248201527f45524332303a207472616e736665722066726f6d20746865207a65726f20616460448201527f647265737300000000000000000000000000000000000000000000000000000060648201526084016103bb565b6001600160a01b03821661079a5760405162461bcd60e51b815260206004820152602360248201527f45524332303a207472616e7366657220746f20746865207a65726f206164647260448201527f657373000000000000000000000000000000000000000000000000000000000060648201526084016103bb565b6001600160a01b038316600090815260336020526040902054818110156108295760405162461bcd60e51b815260206004820152602660248201527f45524332303a207472616e7366657220616d6f756e742065786365656473206260448201527f616c616e6365000000000000000000000000000000000000000000000000000060648201526084016103bb565b6001600160a01b03808516600090815260336020526040808220858503905591851681529081208054849290610860908490610d63565b92505081905550826001600160a01b0316846001600160a01b03167fddf252ad1be2c89b69c2b068fc378daa952ba7f163c4a11628f55a4df523b3ef846040516108ac91815260200190565b60405180910390a36104b8565b600054610100900460ff166109245760405162461bcd60e51b815260206004820152602b60248201527f496e697469616c697a61626c653a20636f6e7472616374206973206e6f74206960448201526a6e697469616c697a696e6760a81b60648201526084016103bb565b61092e8282610a16565b5050565b6001600160a01b0382166109885760405162461bcd60e51b815260206004820152601f60248201527f45524332303a206d696e7420746f20746865207a65726f20616464726573730060448201526064016103bb565b806035600082825461099a9190610d63565b90915550506001600160a01b038216600090815260336020526040812080548392906109c7908490610d63565b90915550506040518181526001600160a01b038316906000907fddf252ad1be2c89b69c2b068fc378daa952ba7f163c4a11628f55a4df523b3ef9060200160405180910390a35050565b505050565b600054610100900460ff16610a815760405162461bcd60e51b815260206004820152602b60248201527f496e697469616c697a61626c653a20636f6e7472616374206973206e6f74206960448201526a6e697469616c697a696e6760a81b60648201526084016103bb565b8151610a94906036906020850190610aa4565b508051610a119060379060208401905b828054610ab090610d89565b90600052602060002090601f016020900481019282610ad25760008555610b18565b82601f10610aeb57805160ff1916838001178555610b18565b82800160010185558215610b18579182015b82811115610b18578251825591602001919060010190610afd565b50610b24929150610b28565b5090565b5b80821115610b245760008155600101610b29565b80356001600160a01b0381168114610b5457600080fd5b919050565b600082601f830112610b6a57600080fd5b813567ffffffffffffffff80821115610b8557610b85610dc4565b604051601f8301601f19908116603f01168101908282118183101715610bad57610bad610dc4565b81604052838152866020858801011115610bc657600080fd5b836020870160208301376000602085830101528094505050505092915050565b600060208284031215610bf857600080fd5b610c0182610b3d565b9392505050565b60008060408385031215610c1b57600080fd5b610c2483610b3d565b9150610c3260208401610b3d565b90509250929050565b600080600060608486031215610c5057600080fd5b610c5984610b3d565b9250610c6760208501610b3d565b9150604084013590509250925092565b60008060408385031215610c8a57600080fd5b610c9383610b3d565b946020939093013593505050565b600080600060608486031215610cb657600080fd5b833567ffffffffffffffff80821115610cce57600080fd5b610cda87838801610b59565b94506020860135915080821115610cf057600080fd5b50610cfd86828701610b59565b925050604084013590509250925092565b600060208083528351808285015260005b81811015610d3b57858101830151858201604001528201610d1f565b81811115610d4d576000604083870101525b50601f01601f1916929092016040019392505050565b60008219821115610d8457634e487b7160e01b600052601160045260246000fd5b500190565b600181811c90821680610d9d57607f821691505b60208210811415610dbe57634e487b7160e01b600052602260045260246000fd5b50919050565b634e487b7160e01b600052604160045260246000fdfea26469706673582212201af1f6e0b44171eaa7624c002653617a7ca4f0b3418b53f73ddd37dda82aab6164736f6c63430008070033",
  "linkReferences": {},
  "deployedLinkReferences": {}
}