{
  "_format": "hh-sol-artifact-1",
  "contractName": "BFFDistributorStorage",
  "sourceName": "contracts/BFFDistributor.sol",
  "abi": [
    {
      "inputs": [],
      "name": "BFFToken",
      "outputs": [
        {
          "internalType": "contract IERC20Upgradeable",
          "name": "",
          "type": "address"
        }
      ],
      "stateMutability": "view",
      "type": "function"
    },
    {
      "inputs": [],
      "name": "BFFtoken",
      "outputs": [
        {
          "internalType": "address",
          "name": "",
          "type": "address"
        }
      ],
      "stateMutability": "view",
      "type": "function"
    },
    {
      "inputs": [],
      "name": "merkleRoot",
      "outputs": [
        {
          "internalType": "bytes32",
          "name": "",
          "type": "bytes32"
        }
      ],
      "stateMutability": "view",
      "type": "function"
    }
  ],
  "bytecode": "0x608060405234801561001057600080fd5b5060f48061001f6000396000f3fe6080604052348015600f57600080fd5b5060043610603c5760003560e01c80632eb4a7ab146041578063c01cc29814605c578063c935be8014609f575b600080fd5b604960015481565b6040519081526020015b60405180910390f35b600254607b9073ffffffffffffffffffffffffffffffffffffffff1681565b60405173ffffffffffffffffffffffffffffffffffffffff90911681526020016053565b600054607b9073ffffffffffffffffffffffffffffffffffffffff168156fea264697066735822122080c61d4dda0b0863e1952c57119e57010a4c9c05fc7e6e22ec91323816a1852d64736f6c63430008070033",
  "linkReferences": {},
  "deployedLinkReferences": {}
}