{
  "_format": "hh-sol-artifact-1",
  "contractName": "BFFDistributor",
  "sourceName": "contracts/BFFDistributor.sol",
  "abi": [
    {
      "inputs": [
        {
          "internalType": "contract IERC20Upgradeable",
          "name": "token",
          "type": "address"
        }
      ],
      "stateMutability": "nonpayable",
      "type": "constructor"
    },
    {
      "anonymous": false,
      "inputs": [
        {
          "indexed": false,
          "internalType": "address",
          "name": "claimer",
          "type": "address"
        },
        {
          "indexed": false,
          "internalType": "uint256",
          "name": "amount",
          "type": "uint256"
        }
      ],
      "name": "Claimed",
      "type": "event"
    },
    {
      "anonymous": false,
      "inputs": [
        {
          "indexed": false,
          "internalType": "bytes32",
          "name": "merkleRoot",
          "type": "bytes32"
        },
        {
          "indexed": false,
          "internalType": "uint256",
          "name": "totalAllocation",
          "type": "uint256"
        }
      ],
      "name": "MerkleAdded",
      "type": "event"
    },
    {
      "anonymous": false,
      "inputs": [
        {
          "indexed": true,
          "internalType": "address",
          "name": "previousOwner",
          "type": "address"
        },
        {
          "indexed": true,
          "internalType": "address",
          "name": "newOwner",
          "type": "address"
        }
      ],
      "name": "OwnershipTransferred",
      "type": "event"
    },
    {
      "anonymous": false,
      "inputs": [
        {
          "indexed": false,
          "internalType": "address",
          "name": "to",
          "type": "address"
        },
        {
          "indexed": false,
          "internalType": "uint256",
          "name": "amount",
          "type": "uint256"
        }
      ],
      "name": "WithdrawFund",
      "type": "event"
    },
    {
      "inputs": [],
      "name": "BFFToken",
      "outputs": [
        {
          "internalType": "contract IERC20Upgradeable",
          "name": "",
          "type": "address"
        }
      ],
      "stateMutability": "view",
      "type": "function"
    },
    {
      "inputs": [],
      "name": "BFFtoken",
      "outputs": [
        {
          "internalType": "address",
          "name": "",
          "type": "address"
        }
      ],
      "stateMutability": "view",
      "type": "function"
    },
    {
      "inputs": [
        {
          "internalType": "address",
          "name": "claimer",
          "type": "address"
        },
        {
          "internalType": "uint256",
          "name": "amount",
          "type": "uint256"
        },
        {
          "internalType": "bytes32[]",
          "name": "merkleProof",
          "type": "bytes32[]"
        }
      ],
      "name": "claimTokens",
      "outputs": [],
      "stateMutability": "nonpayable",
      "type": "function"
    },
    {
      "inputs": [],
      "name": "merkleRoot",
      "outputs": [
        {
          "internalType": "bytes32",
          "name": "",
          "type": "bytes32"
        }
      ],
      "stateMutability": "view",
      "type": "function"
    },
    {
      "inputs": [
        {
          "internalType": "bytes32",
          "name": "_merkleRoot",
          "type": "bytes32"
        },
        {
          "internalType": "uint256",
          "name": "totalAllocation",
          "type": "uint256"
        }
      ],
      "name": "newMerkleAllocations",
      "outputs": [],
      "stateMutability": "nonpayable",
      "type": "function"
    },
    {
      "inputs": [],
      "name": "owner",
      "outputs": [
        {
          "internalType": "address",
          "name": "",
          "type": "address"
        }
      ],
      "stateMutability": "view",
      "type": "function"
    },
    {
      "inputs": [],
      "name": "renounceOwnership",
      "outputs": [],
      "stateMutability": "nonpayable",
      "type": "function"
    },
    {
      "inputs": [
        {
          "internalType": "address",
          "name": "newOwner",
          "type": "address"
        }
      ],
      "name": "transferOwnership",
      "outputs": [],
      "stateMutability": "nonpayable",
      "type": "function"
    },
    {
      "inputs": [
        {
          "internalType": "address",
          "name": "claimer",
          "type": "address"
        },
        {
          "internalType": "uint256",
          "name": "amount",
          "type": "uint256"
        },
        {
          "internalType": "bytes32[]",
          "name": "merkleProof",
          "type": "bytes32[]"
        }
      ],
      "name": "verifyClaim",
      "outputs": [
        {
          "internalType": "bool",
          "name": "valid",
          "type": "bool"
        }
      ],
      "stateMutability": "view",
      "type": "function"
    },
    {
      "inputs": [
        {
          "internalType": "address",
          "name": "to",
          "type": "address"
        },
        {
          "internalType": "uint256",
          "name": "amount",
          "type": "uint256"
        }
      ],
      "name": "withdrawTokens",
      "outputs": [],
      "stateMutability": "nonpayable",
      "type": "function"
    }
  ],
  "bytecode": "0x608060405234801561001057600080fd5b50604051610f45380380610f4583398101604081905261002f916100af565b6100383361005d565b600280546001600160a01b0319166001600160a01b03929092169190911790556100df565b600380546001600160a01b038381166001600160a01b0319831681179093556040519116919082907f8be0079c531659141344cd1fd0a4f28419497f9722a3daafe3b4186f6b6457e090600090a35050565b6000602082840312156100c157600080fd5b81516001600160a01b03811681146100d857600080fd5b9392505050565b610e57806100ee6000396000f3fe608060405234801561001057600080fd5b50600436106100be5760003560e01c8063aa2945db11610076578063c935be801161005b578063c935be801461016a578063cfb4a1fc1461017d578063f2fde38b1461019057600080fd5b8063aa2945db14610134578063c01cc2981461015757600080fd5b8063715018a6116100a7578063715018a6146100f45780638479ed36146100fc5780638da5cb5b1461010f57600080fd5b806306b091f9146100c35780632eb4a7ab146100d8575b600080fd5b6100d66100d1366004610c02565b6101a3565b005b6100e160015481565b6040519081526020015b60405180910390f35b6100d6610260565b6100d661010a366004610d2f565b6102c6565b6003546001600160a01b03165b6040516001600160a01b0390911681526020016100eb565b610147610142366004610c2c565b610373565b60405190151581526020016100eb565b60025461011c906001600160a01b031681565b60005461011c906001600160a01b031681565b6100d661018b366004610c2c565b61038a565b6100d661019e366004610be7565b6103a4565b6003546001600160a01b031633146102025760405162461bcd60e51b815260206004820181905260248201527f4f776e61626c653a2063616c6c6572206973206e6f7420746865206f776e657260448201526064015b60405180910390fd5b600254610219906001600160a01b03168383610486565b604080516001600160a01b0384168152602081018390527f09ad672d4e7c4892da934d1051932ebe9ec4b6ec8c3f40d569176db3e93e5abe91015b60405180910390a15050565b6003546001600160a01b031633146102ba5760405162461bcd60e51b815260206004820181905260248201527f4f776e61626c653a2063616c6c6572206973206e6f7420746865206f776e657260448201526064016101f9565b6102c4600061051a565b565b6003546001600160a01b031633146103205760405162461bcd60e51b815260206004820181905260248201527f4f776e61626c653a2063616c6c6572206973206e6f7420746865206f776e657260448201526064016101f9565b600254610338906001600160a01b0316333084610584565b600182905560408051838152602081018390527f48e898367d64a0b30f66daa85ea5d358f509e14a51cf2864246f5c46e6cc4fec9101610254565b60006103808484846105db565b90505b9392505050565b6103958383836106c4565b61039f8383610762565b505050565b6003546001600160a01b031633146103fe5760405162461bcd60e51b815260206004820181905260248201527f4f776e61626c653a2063616c6c6572206973206e6f7420746865206f776e657260448201526064016101f9565b6001600160a01b03811661047a5760405162461bcd60e51b815260206004820152602660248201527f4f776e61626c653a206e6577206f776e657220697320746865207a65726f206160448201527f646472657373000000000000000000000000000000000000000000000000000060648201526084016101f9565b6104838161051a565b50565b6040516001600160a01b03831660248201526044810182905261039f9084907fa9059cbb00000000000000000000000000000000000000000000000000000000906064015b60408051601f198184030181529190526020810180516001600160e01b03167fffffffff00000000000000000000000000000000000000000000000000000000909316929092179091526107f1565b600380546001600160a01b038381167fffffffffffffffffffffffff0000000000000000000000000000000000000000831681179093556040519116919082907f8be0079c531659141344cd1fd0a4f28419497f9722a3daafe3b4186f6b6457e090600090a35050565b6040516001600160a01b03808516602483015283166044820152606481018290526105d59085907f23b872dd00000000000000000000000000000000000000000000000000000000906084016104cb565b50505050565b6040516bffffffffffffffffffffffff19606085901b16602082015260348101839052600090819060540160405160208183030381529060405280519060200120905061065c6040518060400160405280600e81526020017f54686973206973206c6561663a200000000000000000000000000000000000008152506108d6565b61066581610932565b6106a36040518060400160405280600e81526020017f5468697320697320726f6f743a200000000000000000000000000000000000008152506108d6565b6106ae600154610932565b6106bb8360015483610990565b95945050505050565b6106cf8383836105db565b61071b5760405162461bcd60e51b815260206004820152601660248201527f496e636f7272656374206d65726b6c652070726f6f660000000000000000000060448201526064016101f9565b604080516001600160a01b0385168152602081018490527fd8138f8a3f377c5259ca548e70e4c2de94f129f5a11036a15b69513cba2b426a910160405180910390a1505050565b80156107835760025461077f906001600160a01b03168383610486565b5050565b60405162461bcd60e51b815260206004820152603d60248201527f4e6f2062616c616e636520776f756c64206265207472616e736665727265642060448201527f2d206e6f7420676f696e6720746f20776173746520796f75722067617300000060648201526084016101f9565b6000610846826040518060400160405280602081526020017f5361666545524332303a206c6f772d6c6576656c2063616c6c206661696c6564815250856001600160a01b03166109a69092919063ffffffff16565b80519091501561039f57808060200190518101906108649190610d0d565b61039f5760405162461bcd60e51b815260206004820152602a60248201527f5361666545524332303a204552433230206f7065726174696f6e20646964206e60448201527f6f7420737563636565640000000000000000000000000000000000000000000060648201526084016101f9565b610483816040516024016108ea9190610d6d565b60408051601f198184030181529190526020810180516001600160e01b03167f41304fac000000000000000000000000000000000000000000000000000000001790526109b5565b6104838160405160240161094891815260200190565b60408051601f198184030181529190526020810180516001600160e01b03167f27b7cf85000000000000000000000000000000000000000000000000000000001790526109b5565b60008261099d85846109d6565b14949350505050565b60606103808484600085610a4a565b80516a636f6e736f6c652e6c6f67602083016000808483855afa5050505050565b600081815b8451811015610a425760008582815181106109f8576109f8610df5565b60200260200101519050808311610a1e5760008381526020829052604090209250610a2f565b600081815260208490526040902092505b5080610a3a81610dcc565b9150506109db565b509392505050565b606082471015610ac25760405162461bcd60e51b815260206004820152602660248201527f416464726573733a20696e73756666696369656e742062616c616e636520666f60448201527f722063616c6c000000000000000000000000000000000000000000000000000060648201526084016101f9565b6001600160a01b0385163b610b195760405162461bcd60e51b815260206004820152601d60248201527f416464726573733a2063616c6c20746f206e6f6e2d636f6e747261637400000060448201526064016101f9565b600080866001600160a01b03168587604051610b359190610d51565b60006040518083038185875af1925050503d8060008114610b72576040519150601f19603f3d011682016040523d82523d6000602084013e610b77565b606091505b5091509150610b87828286610b92565b979650505050505050565b60608315610ba1575081610383565b825115610bb15782518084602001fd5b8160405162461bcd60e51b81526004016101f99190610d6d565b80356001600160a01b0381168114610be257600080fd5b919050565b600060208284031215610bf957600080fd5b61038382610bcb565b60008060408385031215610c1557600080fd5b610c1e83610bcb565b946020939093013593505050565b600080600060608486031215610c4157600080fd5b610c4a84610bcb565b92506020808501359250604085013567ffffffffffffffff80821115610c6f57600080fd5b818701915087601f830112610c8357600080fd5b813581811115610c9557610c95610e0b565b8060051b604051601f19603f83011681018181108582111715610cba57610cba610e0b565b604052828152858101935084860182860187018c1015610cd957600080fd5b600095505b83861015610cfc578035855260019590950194938601938601610cde565b508096505050505050509250925092565b600060208284031215610d1f57600080fd5b8151801515811461038357600080fd5b60008060408385031215610d4257600080fd5b50508035926020909101359150565b60008251610d63818460208701610da0565b9190910192915050565b6020815260008251806020840152610d8c816040850160208701610da0565b601f01601f19169190910160400192915050565b60005b83811015610dbb578181015183820152602001610da3565b838111156105d55750506000910152565b6000600019821415610dee57634e487b7160e01b600052601160045260246000fd5b5060010190565b634e487b7160e01b600052603260045260246000fd5b634e487b7160e01b600052604160045260246000fdfea26469706673582212201d56d4dd949c12c76d3de9ae10a76ec49f14fdd7e2518450080360aebdcbffe664736f6c63430008070033",
  "linkReferences": {},
  "deployedLinkReferences": {}
}